:100000000C942A000C9447000C9447000C94470071
:100010000C9447000C9447000C9447000C94470044
:100020000C9447000C9447000C9447000C94470034
:100030000C9447000C9447000C9447000C94470024
:100040000C9447000C9447000C9447000C94470014
:100050000C94470011241FBECFE5D8E0DEBFCDBF12
:1000600010E0A0E6B0E0E0E4FAE002C005900D92F6
:10007000A837B107D9F710E0A8E7B0E001C01D929A
:10008000AC37B107E1F70E94C7020C941E050C942F
:10009000000081E460E040E00E946000379A319AFD
:1000A000329A3E9A3F9A0895369A3499FECF84B197
:1000B00090E045B1349A342F20E0822B932B0895A1
:1000C000823451F1833420F4813409F07BC007C0BD
:1000D000833409F43EC0843409F074C057C0413001
:1000E00069F42AB381E090E0AC0102C0440F551FCF
:1000F0006A95E2F7BA01622B6ABB08952AB381E0E0
:1001000090E0AC0102C0440F551F6A95E2F7BA01B6
:10011000609562236ABB0895413069F427B381E09A
:1001200090E0AC0102C0440F551F6A95E2F7BA0196
:10013000622B67BB089527B381E090E0AC0102C059
:10014000440F551F6A95E2F7BA016095622367BBB9
:100150000895413069F424B381E090E0AC0102C01D
:10016000440F551F6A95E2F7BA01622B64BB0895EC
:1001700024B381E090E0AC0102C0440F551F6A95A2
:10018000E2F7BA016095622364BB0895413069F4D7
:1001900021B381E090E0AC0102C0440F551F6A9585
:1001A000E2F7BA01622B61BB089521B381E090E0D0
:1001B000AC0102C0440F551F6A95E2F7BA01609581
:1001C000622361BB0895823451F1833420F4813479
:1001D00009F07BC007C0833409F43EC0843409F0C1
:1001E00074C057C0413069F42BB381E090E0AC019A
:1001F00002C0440F551F6A95E2F7BA01622B6BBB30
:1002000008952BB381E090E0AC0102C0440F551F6C
:100210006A95E2F7BA01609562236BBB089541309D
:1002200069F428B381E090E0AC0102C0440F551F8F
:100230006A95E2F7BA01622B68BB089528B381E0A2
:1002400090E0AC0102C0440F551F6A95E2F7BA0175
:100250006095622368BB0895413069F425B381E05D
:1002600090E0AC0102C0440F551F6A95E2F7BA0155
:10027000622B65BB089525B381E090E0AC0102C01C
:10028000440F551F6A95E2F7BA016095622365BB7A
:100290000895413069F422B381E090E0AC0102C0DE
:1002A000440F551F6A95E2F7BA01622B62BB0895AD
:1002B00022B381E090E0AC0102C0440F551F6A9563
:1002C000E2F7BA016095622362BB08958234F1F0CF
:1002D000833420F4813409F04FC006C0833441F1E7
:1002E000843409F049C036C029B381E090E0062E7D
:1002F00002C0880F991F0A94E2F730E0822393230B
:1003000002C0959587956A95E2F7089526B381E036
:1003100090E0062E02C0880F991F0A94E2F730E0A1
:100320008223932302C0959587956A95E2F70895F5
:1003300023B381E090E0062E02C0880F991F0A9433
:10034000E2F730E08223932302C0959587956A9562
:10035000E2F7089520B381E090E0062E02C0880FF6
:10036000991F0A94E2F730E08223932302C0959507
:1003700087956A95E2F7089580E008958234B9F090
:10038000833418F48134C9F505C08334E9F084342A
:10039000A1F527C02BB381E090E0AC0102C0440F6F
:1003A000551F6A95E2F7BA0162276BBB089528B31F
:1003B00081E090E0AC0102C0440F551F6A95E2F75E
:1003C000BA01622768BB089525B381E090E0AC01D3
:1003D00002C0440F551F6A95E2F7BA01622765BB58
:1003E000089522B381E090E0AC0102C0440F551F94
:1003F0006A95E2F7BA01622762BB0895823461F020
:10040000833418F4813469F405C0833439F08434BA
:1004100041F406C06ABB089567BB089564BB0895A4
:1004200061BB0895823461F0833418F4813469F437
:1004300005C0833439F0843441F406C06BBB0895A1
:1004400068BB089565BB089562BB0895823461F06E
:10045000833418F4813471F405C0833439F0843462
:1004600049F406C089B3089586B3089583B3089507
:1004700080B3089580E0089583E462E041E00E9443
:10048000E3008FE99FE00197F1F700C0000083E4EB
:1004900062E040E00E94E3008FE99FE00197F1F7FE
:1004A00000C000000895CF93C82F83E460E041E0CE
:1004B0000E94E30084E46C2F0E9412020E943C021E
:1004C000CF910895CF93DF93EC018881882331F099
:1004D00021960E94530289918823D9F7DF91CF9109
:1004E0000895CF93C82F83E460E040E00E94E300CA
:1004F00084E46C2F0E9412020E943C028FEC97E071
:100500000197F1F700C00000CF910895833010F4F7
:10051000613120F082E00E9471020895813029F457
:10052000862F81580E9471020895823021F4862F0F
:1005300081540E947102089584E461E00E94FE01EA
:1005400083E460E041E00E94600083E461E041E018
:100550000E94600083E462E041E00E94600083E466
:1005600061E040E00E94E30086E00E9471028CE0BE
:100570000E94710288E30E94710281E00E94710270
:100580008FE19EE40197F1F700C0000008950E94FA
:100590009C020E9449000E945400BC0180E090E04F
:1005A0000E94190420E030E040E85EE30E947F04EE
:1005B0000E94ED03DC01CB0190937B0080937A00D5
:1005C00080E690E00E9462020DE610E0CAE0D0E012
:1005D0000F2EF3E7EF2EF0E0FF2EF02D0F2EF4E6B6
:1005E000CF2EDD24F02D0E945400BC0180E090E06D
:1005F0000E94190420E030E040E85EE30E947F049E
:100600000E94ED03DC01CB0190937B0080937A0084
:1006100080917A0090917B008A309105D8F481E036
:100620006DE00E94860280917A0090917B00805D4F
:100630000E9453028FED0E94530283E40E945302F2
:1006400080E20E94530282E061E00E948602C801BB
:100650000E94620280917A0090917B00843691051D
:1006600068F580917A0090917B008A30910530F195
:1006700081E06DE00E94860280917A0090917B007B
:10068000BE010E940A05862F805D0E945302809160
:100690007A0090917B00BE010E940A05805D0E9455
:1006A00053028FED0E94530283E40E94530282E0C2
:1006B00061E00E948602C8010E94620280917A0075
:1006C00090917B0023E0883E920708F08CCF8091C8
:1006D0007A0090917B008436910508F484CF81E004
:1006E0006DE00E948602C7010E94620282E061E022
:1006F0000E94860280917A0090917B00B6010E9450
:100700000A05862F805D0E94530280917A009091A5
:100710007B00BE010E940A05CB01BE010E940A05B2
:10072000805D0E94530280917A0090917B00BE010F
:100730000E940A05805D0E9453028FED0E945302C1
:1007400083E40E9453024FCF83B7886083BF80E564
:100750008CBF83B7816083BF83B7846083BF789485
:1007600089B7826089BF0895BB9A83B7886083BFC9
:1007700080E48CBF83B7816083BF83B7846083BF0D
:1007800083B7806183BF0895BB9A83B7806483BFBA
:1007900083B7886083BF80E48CBF83B7816083BFE9
:1007A00083B7846083BF83B7806183BF83B7806270
:1007B00083BF0895BB9A83B7806483BF80E48CBFF6
:1007C00083B7816083BF83B7846083BF83B7806151
:1007D00083BF83B7806283BF089570D088F09F572E
:1007E00090F0B92F9927B751A0F0D1F0660F771F7D
:1007F000881F991F1AF0BA95C9F712C0B13081F05D
:1008000077D0B1E0089574C0672F782F8827B85F3C
:1008100039F0B93FCCF3869577956795B395D9F7BD
:100820003EF490958095709561957F4F8F4F9F4FC7
:100830000895E89409C097FB3EF4909580957095D3
:1008400061957F4F8F4F9F4F9923A9F0F92F96E91C
:10085000BB279395F695879577956795B795F11191
:10086000F8CFFAF4BB0F11F460FF1BC06F5F7F4F2E
:100870008F4F9F4F16C0882311F096E911C0772340
:1008800021F09EE8872F762F05C0662371F096E849
:10089000862F70E060E02AF09A95660F771F881F18
:1008A000DAF7880F9695879597F9089557FD905830
:1008B000440F551F59F05F3F71F04795880F97FB24
:1008C000991F61F09F3F79F08795089512161306DE
:1008D0001406551FF2CF4695F1DF08C0161617060D
:1008E0001806991FF1CF8695710561050894089542
:1008F000E894BB2766277727CB0197F908950BD09B
:1009000078C069D028F06ED018F0952309F05AC04D
:100910005FC01124EECFCADFA0F3959FD1F3950FEE
:1009200050E0551F629FF001729FBB27F00DB11D73
:10093000639FAA27F00DB11DAA1F649F6627B00D03
:10094000A11D661F829F2227B00DA11D621F739FEC
:10095000B00DA11D621F839FA00D611D221F749FFA
:100960003327A00D611D231F849F600D211D822F41
:10097000762F6A2F11249F5750408AF0E1F0882388
:100980004AF0EE0FFF1FBB1F661F771F881F915095
:100990005040A9F79E3F510570F014C0AACF5F3FA9
:1009A000ECF3983EDCF3869577956795B795F795C8
:1009B000E7959F5FC1F7FE2B880F911D9695879550
:1009C00097F9089597F99F6780E870E060E00895CF
:1009D0009FEF80EC089500240A9416161706180657
:1009E0000906089500240A94121613061406050633
:1009F0000895092E0394000C11F4882352F0BB0FC4
:100A000040F4BF2B11F460FF04C06F5F7F4F8F4F26
:100A10009F4F0895AA1BBB1B51E107C0AA1FBB1F14
:100A2000A617B70710F0A61BB70B881F991F5A957A
:100A3000A9F780959095BC01CD010895F894FFCF5A
:100A400054656D70657261747572653D002020207B
:080A50002020002020202000DE
:00000001FF
